{
  "contractName": "_1a2bPve",
  "abi": [
    {
      "constant": true,
      "inputs": [
        {
          "name": "",
          "type": "uint256"
        }
      ],
      "name": "answer",
      "outputs": [
        {
          "name": "",
          "type": "uint256"
        }
      ],
      "payable": false,
      "stateMutability": "view",
      "type": "function"
    },
    {
      "constant": true,
      "inputs": [],
      "name": "seed",
      "outputs": [
        {
          "name": "",
          "type": "uint256"
        }
      ],
      "payable": false,
      "stateMutability": "view",
      "type": "function"
    },
    {
      "constant": false,
      "inputs": [
        {
          "name": "_answer",
          "type": "uint256"
        }
      ],
      "name": "guess",
      "outputs": [
        {
          "name": "A",
          "type": "uint256"
        },
        {
          "name": "B",
          "type": "uint256"
        }
      ],
      "payable": true,
      "stateMutability": "payable",
      "type": "function"
    },
    {
      "inputs": [],
      "payable": false,
      "stateMutability": "nonpayable",
      "type": "constructor"
    },
    {
      "anonymous": false,
      "inputs": [],
      "name": "NewGame",
      "type": "event"
    },
    {
      "anonymous": false,
      "inputs": [
        {
          "indexed": false,
          "name": "A",
          "type": "uint256"
        },
        {
          "indexed": false,
          "name": "B",
          "type": "uint256"
        },
        {
          "indexed": false,
          "name": "C",
          "type": "uint256"
        },
        {
          "indexed": false,
          "name": "D",
          "type": "uint256"
        }
      ],
      "name": "Guess",
      "type": "event"
    },
    {
      "anonymous": false,
      "inputs": [
        {
          "indexed": false,
          "name": "A",
          "type": "uint256"
        },
        {
          "indexed": false,
          "name": "B",
          "type": "uint256"
        }
      ],
      "name": "WrongAnswer",
      "type": "event"
    },
    {
      "anonymous": false,
      "inputs": [
        {
          "indexed": false,
          "name": "reward",
          "type": "uint256"
        }
      ],
      "name": "Accepted",
      "type": "event"
    }
  ],
  "bytecode": "0x6060604052610a09600155341561001557600080fd5b61003061003564010000000002610427176401000000009004565b6100d7565b600080610100434442010101600181905550600091505b60048210156100a757600960015481151561006357fe5b069050600a6001600082825481151561007857fe5b04925050819055506001810160008084815260200190815260200160002081905550818060010192505061004c565b7f097e83b56703b03ba61610319efe932a61f13a95ca1acdb209de6469bd18b86360405160405180910390a15050565b610509806100e66000396000f300606060405260043610610057576000357c0100000000000000000000000000000000000000000000000000000000900463ffffffff16806306f702951461005c5780637d94792a146100935780639189fec1146100bc575b600080fd5b341561006757600080fd5b61007d60048080359060200190919050506100ef565b6040518082815260200191505060405180910390f35b341561009e57600080fd5b6100a6610107565b6040518082815260200191505060405180910390f35b6100d2600480803590602001909190505061010d565b604051808381526020018281526020019250505060405180910390f35b60006020528060005260406000206000915090505481565b60015481565b6000806101186104c9565b6000806000806000600a341015151561013057600080fd5b600460405180591061013f5750595b908082528060200260200182016040525095506000945060009350600092505b60048310156101ad57600a8981151561017457fe5b06868481518110151561018357fe5b9060200190602002018181525050600a8981151561019d57fe5b049850828060010193505061015f565b7f032c6b5929d7114a929748084ddb35bff9076ad2009f8e66a088dc24a5a05aea8660008151811015156101dd57fe5b906020019060200201518760018151811015156101f657fe5b9060200190602002015188600281518110151561020f57fe5b9060200190602002015189600381518110151561022857fe5b906020019060200201516040518085815260200184815260200183815260200182815260200194505050505060405180910390a1600091505b60048210156102fe5760008083815260200190815260200160002054868381518110151561028b57fe5b9060200190602002015114156102a2576001850194505b600090505b60048110156102f3576000808381526020019081526020016000205486828151811015156102d157fe5b9060200190602002015114156102e8576001840193505b8060010190506102a7565b816001019150610261565b848403935060048514156103d657610314610427565b7f8803fc454569835e33f189a26b5ffa0e12e0bbe753c5ecde5d0fe8c8aafb7e0f60023073ffffffffffffffffffffffffffffffffffffffff163181151561035857fe5b046040518082815260200191505060405180910390a13373ffffffffffffffffffffffffffffffffffffffff166108fc60023073ffffffffffffffffffffffffffffffffffffffff16318115156103ab57fe5b049081150290604051600060405180830381858888f1935050505015156103d157600080fd5b610416565b7f2b1c806c30628770a0bf79284d633733e07f16cecb838541bfe7e63171f5585b8585604051808381526020018281526020019250505060405180910390a15b848497509750505050505050915091565b600080610100434442010101600181905550600091505b600482101561049957600960015481151561045557fe5b069050600a6001600082825481151561046a57fe5b04925050819055506001810160008084815260200190815260200160002081905550818060010192505061043e565b7f097e83b56703b03ba61610319efe932a61f13a95ca1acdb209de6469bd18b86360405160405180910390a15050565b6020604051908101604052806000815250905600a165627a7a723058204f0bca5a96d594e01895339b10a74a481f8acc735c17dd78fefbce9b07da83af0029",
  "source": "pragma solidity ^0.4.18;\ncontract _1a2bPve {\n    mapping(uint => uint) public answer;\n    uint public seed = 2569;\n\n    event NewGame();\n    event Guess(uint A, uint B, uint C, uint D);\n    event WrongAnswer(uint A, uint B);\n    event Accepted(uint reward);\n\n\t// create a four-digit random number\n\tfunction newGame() internal {\n\t\tseed = block.timestamp+block.difficulty+block.number + 256;\n\n\t\tfor (uint i=0;i<4;i++) {\n            uint x = seed % 9;\n            seed /= 10;\n        \tanswer[i] = x+1;\n\t\t}\n\t\tNewGame();\n\t}\n\n\tfunction _1a2bPve() public {\n\t\tnewGame();\n\t}\n\n\t// enter a four-digit number and get a hint\n\t// A = count of digits that meet the right number\n\t// B = count of numbers that exist but at a wrong place\n\t// eg: if the answer is 1234, then 3254 = 2A1B\n\tfunction guess(uint _answer) payable public returns(uint A,uint B){\n\t\trequire(msg.value >= 10);\n\n\t\tuint[] memory guessanswer = new uint[](4);\n\t\tuint a = 0;\n\t\tuint b = 0;\n\t\tfor (uint i=0; i<4; i++) {\n\t\t\tguessanswer[i] = _answer % 10;\n\t\t\t_answer /= 10;\n\t\t}\n\t\tGuess(guessanswer[0], guessanswer[1], guessanswer[2], guessanswer[3]);\n\t\tfor (uint j=0;j<4;++j) {\n\t\t\tif (guessanswer[j] == answer[j]) {\n\t\t\t\ta += 1;\n\t\t\t}\n\t\t\tfor (uint k=0;k<4;++k) {\n\t\t\t\tif (guessanswer[k] == answer[j]) {\n\t\t\t\t\tb += 1;\n\t\t\t\t}\n\t\t\t}\n\t\t}\n\n\t\tb -= a;\n\t\tif (a == 4) {\n\t\t    newGame();\n            Accepted(this.balance / 2);\n\t\t    msg.sender.transfer(this.balance / 2);\n\t\t} else {\n\t    \tWrongAnswer(a, b);\n\t\t}\n\t\treturn (a,b);\n\t}\n}",
  "sourcePath": "D:\\documents\\1A2BGuessingNumber\\contracts\\_1a2bPve.sol",
  "compiler": {
    "name": "solc",
    "version": "0.4.18+commit.9cf6e910.Emscripten.clang"
  },
  "schemaVersion": "1.0.1",
  "updatedAt": "2018-01-21T09:05:50.012Z"
}