{
  "contractName": "BinaryPve",
  "abi": [
    {
      "constant": true,
      "inputs": [],
      "name": "seed",
      "outputs": [
        {
          "name": "",
          "type": "uint256"
        }
      ],
      "payable": false,
      "stateMutability": "view",
      "type": "function"
    },
    {
      "constant": true,
      "inputs": [],
      "name": "answer",
      "outputs": [
        {
          "name": "",
          "type": "uint256"
        }
      ],
      "payable": false,
      "stateMutability": "view",
      "type": "function"
    },
    {
      "constant": false,
      "inputs": [
        {
          "name": "t",
          "type": "uint256"
        }
      ],
      "name": "guess",
      "outputs": [
        {
          "name": "z",
          "type": "int256"
        }
      ],
      "payable": true,
      "stateMutability": "payable",
      "type": "function"
    },
    {
      "inputs": [],
      "payable": false,
      "stateMutability": "nonpayable",
      "type": "constructor"
    },
    {
      "anonymous": false,
      "inputs": [
        {
          "indexed": false,
          "name": "answer",
          "type": "uint256"
        }
      ],
      "name": "NewGame",
      "type": "event"
    },
    {
      "anonymous": false,
      "inputs": [
        {
          "indexed": false,
          "name": "p",
          "type": "address"
        },
        {
          "indexed": false,
          "name": "t",
          "type": "uint256"
        }
      ],
      "name": "Guess",
      "type": "event"
    },
    {
      "anonymous": false,
      "inputs": [
        {
          "indexed": false,
          "name": "p",
          "type": "address"
        },
        {
          "indexed": false,
          "name": "z",
          "type": "int256"
        }
      ],
      "name": "WrongAnswer",
      "type": "event"
    },
    {
      "anonymous": false,
      "inputs": [
        {
          "indexed": false,
          "name": "p",
          "type": "address"
        },
        {
          "indexed": false,
          "name": "z",
          "type": "uint256"
        }
      ],
      "name": "Accepted",
      "type": "event"
    }
  ],
  "bytecode": "0x6060604052341561000f57600080fd5b61002a61002f640100000000026103a2176401000000009004565b61008e565b610100434442010101600181905550600a60015481151561004c57fe5b066000819055507fa0b7f6f22bb4f69adc52dd16ffe2a964ab8b577be274247fa9a1547b03ce3e556000546040518082815260200191505060405180910390a1565b61042d8061009d6000396000f300606060405260043610610057576000357c0100000000000000000000000000000000000000000000000000000000900463ffffffff1680637d94792a1461005c57806385bb7d69146100855780639189fec1146100ae575b600080fd5b341561006757600080fd5b61006f6100da565b6040518082815260200191505060405180910390f35b341561009057600080fd5b6100986100e0565b6040518082815260200191505060405180910390f35b6100c460048080359060200190919050506100e6565b6040518082815260200191505060405180910390f35b60015481565b60005481565b6000600a34101515156100f857600080fd5b7fc365d029fd23e752c7525f3d7edd08309f27edb810bb7026fb935e58830223f53383604051808373ffffffffffffffffffffffffffffffffffffffff1673ffffffffffffffffffffffffffffffffffffffff1681526020018281526020019250505060405180910390a1600054821015610220577fa9fd2b77b8b4d217e2aba427c2f1209c9fd03687d24a832b59140b0f0dfe638d337fffffffffffffffffffffffffffffffffffffffffffffffffffffffffffffffff604051808373ffffffffffffffffffffffffffffffffffffffff1673ffffffffffffffffffffffffffffffffffffffff1681526020018281526020019250505060405180910390a17fffffffffffffffffffffffffffffffffffffffffffffffffffffffffffffffff905061039d565b60005482111561029f577fa9fd2b77b8b4d217e2aba427c2f1209c9fd03687d24a832b59140b0f0dfe638d336001604051808373ffffffffffffffffffffffffffffffffffffffff1673ffffffffffffffffffffffffffffffffffffffff1681526020018281526020019250505060405180910390a16001905061039d565b6102a76103a2565b7fba19e87fb846feb0297591bc7d3f55ec0e3b289f88871a2bcfbe84d66fb47d4a3360023073ffffffffffffffffffffffffffffffffffffffff16318115156102ec57fe5b04604051808373ffffffffffffffffffffffffffffffffffffffff1673ffffffffffffffffffffffffffffffffffffffff1681526020018281526020019250505060405180910390a13373ffffffffffffffffffffffffffffffffffffffff166108fc60023073ffffffffffffffffffffffffffffffffffffffff163181151561037257fe5b049081150290604051600060405180830381858888f19350505050151561039857600080fd5b600090505b919050565b610100434442010101600181905550600a6001548115156103bf57fe5b066000819055507fa0b7f6f22bb4f69adc52dd16ffe2a964ab8b577be274247fa9a1547b03ce3e556000546040518082815260200191505060405180910390a15600a165627a7a7230582019374b8f6fcbed3756b6f2fab5582256f1b3892be36a9ae0dfcb54f5d5e5908b0029",
  "source": "pragma solidity ^0.4.18;\r\ncontract BinaryPve {\r\n    uint public answer; // Should be private\r\n    uint public seed;\r\n\r\n\r\n    /**\r\n     * Create a 0-9 random number.\r\n     */\r\n    event NewGame(uint answer); // Start a new game a answer.\r\n\r\n\tfunction newGame() internal {\r\n\t\tseed = block.timestamp + block.difficulty + block.number + 256;\r\n        answer = seed % 10;\r\n        NewGame(answer);\r\n\t}\r\n\r\n    /**\r\n     * Constructs funcion.\r\n     */\r\n\r\n    function BinaryPve() public {\r\n\t\tnewGame();\r\n\t}\r\n\r\n\r\n\r\n    /**\r\n     * Make a guess t, and return a result.\r\n     * -1: t < answer\r\n     *  0: correct.\r\n     *  1: t > answer\r\n     */\r\n\r\n    event Guess(address p, uint t); // Player p make a guess t.\r\n    event WrongAnswer(address p, int z); // Player p get a WrongAnswer with hint z.\r\n    event Accepted(address p, uint z); // Player p get Accepted and won z as reward.\r\n\r\n\r\n\tfunction guess(uint t) payable public returns(int z){\r\n\t\trequire(msg.value >= 10);\r\n\t\tGuess(msg.sender, t);\r\n        if (t < answer) {\r\n            WrongAnswer(msg.sender, -1);\r\n            return -1;\r\n        } else if (t > answer) {\r\n            WrongAnswer(msg.sender, 1); // event\r\n            return 1;\r\n        }\r\n        newGame();\r\n        Accepted(msg.sender, this.balance / 2); // event\r\n        msg.sender.transfer(this.balance / 2);\r\n        return 0;\r\n\t}\r\n\r\n\r\n}",
  "sourcePath": "D:\\documents\\1A2BGuessingNumber\\contracts\\BinaryPve.sol",
  "compiler": {
    "name": "solc",
    "version": "0.4.18+commit.9cf6e910.Emscripten.clang"
  },
  "schemaVersion": "1.0.1",
  "updatedAt": "2018-01-21T09:05:50.012Z"
}