{
  "contractName": "GuessGame3",
  "abi": [
    {
      "constant": false,
      "inputs": [
        {
          "name": "s",
          "type": "uint256"
        }
      ],
      "name": "guess",
      "outputs": [],
      "payable": true,
      "stateMutability": "payable",
      "type": "function"
    },
    {
      "constant": false,
      "inputs": [
        {
          "name": "s",
          "type": "uint256"
        },
        {
          "name": "a",
          "type": "uint256"
        }
      ],
      "name": "reveal",
      "outputs": [],
      "payable": false,
      "stateMutability": "nonpayable",
      "type": "function"
    },
    {
      "constant": false,
      "inputs": [
        {
          "name": "e",
          "type": "bytes32"
        }
      ],
      "name": "join",
      "outputs": [],
      "payable": true,
      "stateMutability": "payable",
      "type": "function"
    },
    {
      "constant": false,
      "inputs": [
        {
          "name": "z",
          "type": "int256"
        }
      ],
      "name": "answer",
      "outputs": [],
      "payable": true,
      "stateMutability": "payable",
      "type": "function"
    },
    {
      "inputs": [],
      "payable": false,
      "stateMutability": "nonpayable",
      "type": "constructor"
    },
    {
      "anonymous": false,
      "inputs": [
        {
          "indexed": false,
          "name": "p",
          "type": "address"
        },
        {
          "indexed": false,
          "name": "e",
          "type": "bytes32"
        }
      ],
      "name": "NewRoom",
      "type": "event"
    },
    {
      "anonymous": false,
      "inputs": [
        {
          "indexed": false,
          "name": "p1",
          "type": "address"
        },
        {
          "indexed": false,
          "name": "p2",
          "type": "address"
        },
        {
          "indexed": false,
          "name": "e",
          "type": "bytes32"
        }
      ],
      "name": "JoinRoom",
      "type": "event"
    },
    {
      "anonymous": false,
      "inputs": [
        {
          "indexed": false,
          "name": "p1",
          "type": "address"
        },
        {
          "indexed": false,
          "name": "p2",
          "type": "address"
        },
        {
          "indexed": false,
          "name": "s",
          "type": "uint256"
        }
      ],
      "name": "Guess",
      "type": "event"
    },
    {
      "anonymous": false,
      "inputs": [
        {
          "indexed": false,
          "name": "p1",
          "type": "address"
        },
        {
          "indexed": false,
          "name": "p2",
          "type": "address"
        },
        {
          "indexed": false,
          "name": "z",
          "type": "int256"
        }
      ],
      "name": "WrongAnswer",
      "type": "event"
    },
    {
      "anonymous": false,
      "inputs": [
        {
          "indexed": false,
          "name": "p1",
          "type": "address"
        },
        {
          "indexed": false,
          "name": "p2",
          "type": "address"
        }
      ],
      "name": "Accepted",
      "type": "event"
    },
    {
      "anonymous": false,
      "inputs": [
        {
          "indexed": false,
          "name": "p1",
          "type": "address"
        },
        {
          "indexed": false,
          "name": "p2",
          "type": "address"
        },
        {
          "indexed": false,
          "name": "r",
          "type": "uint256"
        }
      ],
      "name": "Win",
      "type": "event"
    },
    {
      "anonymous": false,
      "inputs": [
        {
          "indexed": false,
          "name": "p1",
          "type": "address"
        },
        {
          "indexed": false,
          "name": "p2",
          "type": "address"
        }
      ],
      "name": "Draw",
      "type": "event"
    }
  ],
  "bytecode": "0x6060604052341561000f57600080fd5b611c348061001e6000396000f300606060405260043610610062576000357c0100000000000000000000000000000000000000000000000000000000900463ffffffff1680639189fec1146100675780639348cef71461007f578063ad677d0b146100ab578063d4b6cda8146100c7575b600080fd5b61007d60048080359060200190919050506100df565b005b341561008a57600080fd5b6100a9600480803590602001909190803590602001909190505061036f565b005b6100c56004808035600019169060200190919050506103fb565b005b6100dd6004808035906020019091905050610861565b005b6000803391506000808373ffffffffffffffffffffffffffffffffffffffff1673ffffffffffffffffffffffffffffffffffffffff16815260200190815260200160002060009054906101000a900473ffffffffffffffffffffffffffffffffffffffff16905060008173ffffffffffffffffffffffffffffffffffffffff161415151561016c57600080fd5b6000600660008473ffffffffffffffffffffffffffffffffffffffff1673ffffffffffffffffffffffffffffffffffffffff16815260200190815260200160002080549050148061025a57506000600660008473ffffffffffffffffffffffffffffffffffffffff1673ffffffffffffffffffffffffffffffffffffffff1681526020019081526020016000206001600660008673ffffffffffffffffffffffffffffffffffffffff1673ffffffffffffffffffffffffffffffffffffffff168152602001908152602001600020805490500381548110151561024b57fe5b90600052602060002090015414155b151561026557600080fd5b7fe656c72e12b5b71e6c0dee30bc8343585377ff9501051cb4b5131b3967e8050b828285604051808473ffffffffffffffffffffffffffffffffffffffff1673ffffffffffffffffffffffffffffffffffffffff1681526020018373ffffffffffffffffffffffffffffffffffffffff1673ffffffffffffffffffffffffffffffffffffffff168152602001828152602001935050505060405180910390a1600560008373ffffffffffffffffffffffffffffffffffffffff1673ffffffffffffffffffffffffffffffffffffffff16815260200190815260200160002080548060010182816103559190611b0e565b916000526020600020900160008590919091505550505050565b81600360003373ffffffffffffffffffffffffffffffffffffffff1673ffffffffffffffffffffffffffffffffffffffff1681526020019081526020016000208190555080600460003373ffffffffffffffffffffffffffffffffffffffff1673ffffffffffffffffffffffffffffffffffffffff168152602001908152602001600020819055505050565b60008060003373ffffffffffffffffffffffffffffffffffffffff1673ffffffffffffffffffffffffffffffffffffffff16815260200190815260200160002060009054906101000a900473ffffffffffffffffffffffffffffffffffffffff1673ffffffffffffffffffffffffffffffffffffffff1614151561047e57600080fd5b600a3411151561048d57600080fd5b34600160003373ffffffffffffffffffffffffffffffffffffffff1673ffffffffffffffffffffffffffffffffffffffff1681526020019081526020016000208190555080600260003373ffffffffffffffffffffffffffffffffffffffff1673ffffffffffffffffffffffffffffffffffffffff16815260200190815260200160002081600019169055506000600760009054906101000a900473ffffffffffffffffffffffffffffffffffffffff1673ffffffffffffffffffffffffffffffffffffffff161415156107a957600760009054906101000a900473ffffffffffffffffffffffffffffffffffffffff166000803373ffffffffffffffffffffffffffffffffffffffff1673ffffffffffffffffffffffffffffffffffffffff16815260200190815260200160002060006101000a81548173ffffffffffffffffffffffffffffffffffffffff021916908373ffffffffffffffffffffffffffffffffffffffff16021790555033600080600760009054906101000a900473ffffffffffffffffffffffffffffffffffffffff1673ffffffffffffffffffffffffffffffffffffffff1673ffffffffffffffffffffffffffffffffffffffff16815260200190815260200160002060006101000a81548173ffffffffffffffffffffffffffffffffffffffff021916908373ffffffffffffffffffffffffffffffffffffffff1602179055507fe1f5ad5c790bdc5f040363d2a060a00febdd12a484a09f254d6c8cbd21149d7e33600760009054906101000a900473ffffffffffffffffffffffffffffffffffffffff1683604051808473ffffffffffffffffffffffffffffffffffffffff1673ffffffffffffffffffffffffffffffffffffffff1681526020018373ffffffffffffffffffffffffffffffffffffffff1673ffffffffffffffffffffffffffffffffffffffff1681526020018260001916600019168152602001935050505060405180910390a16000600760006101000a81548173ffffffffffffffffffffffffffffffffffffffff021916908373ffffffffffffffffffffffffffffffffffffffff16021790555061085e565b33600760006101000a81548173ffffffffffffffffffffffffffffffffffffffff021916908373ffffffffffffffffffffffffffffffffffffffff1602179055507fc1414c7a4f0199bc69b2738b996b3b28bfa55817509178e6c800ff75019b962f3382604051808373ffffffffffffffffffffffffffffffffffffffff1673ffffffffffffffffffffffffffffffffffffffff16815260200182600019166000191681526020019250505060405180910390a15b50565b6000803391506000808373ffffffffffffffffffffffffffffffffffffffff1673ffffffffffffffffffffffffffffffffffffffff16815260200190815260200160002060009054906101000a900473ffffffffffffffffffffffffffffffffffffffff16905060008173ffffffffffffffffffffffffffffffffffffffff16141515156108ee57600080fd5b600560008273ffffffffffffffffffffffffffffffffffffffff1673ffffffffffffffffffffffffffffffffffffffff16815260200190815260200160002080549050600660008373ffffffffffffffffffffffffffffffffffffffff1673ffffffffffffffffffffffffffffffffffffffff1681526020019081526020016000208054905010151561098057600080fd5b600660008273ffffffffffffffffffffffffffffffffffffffff1673ffffffffffffffffffffffffffffffffffffffff16815260200190815260200160002080548060010182816109d19190611b3a565b9160005260206000209001600085909190915055506000831415610bd5577f4cd361b37129a4a13dff2704ff3bc0261c22f688c60784c2849582de8b77f1f58183604051808373ffffffffffffffffffffffffffffffffffffffff1673ffffffffffffffffffffffffffffffffffffffff1681526020018273ffffffffffffffffffffffffffffffffffffffff1673ffffffffffffffffffffffffffffffffffffffff1681526020019250505060405180910390a16000600660008473ffffffffffffffffffffffffffffffffffffffff1673ffffffffffffffffffffffffffffffffffffffff1681526020019081526020016000206001600660008673ffffffffffffffffffffffffffffffffffffffff1673ffffffffffffffffffffffffffffffffffffffff1681526020019081526020016000208054905003815481101515610b1957fe5b9060005260206000209001541415610b3957610b3482610db8565b610bd0565b600660008273ffffffffffffffffffffffffffffffffffffffff1673ffffffffffffffffffffffffffffffffffffffff16815260200190815260200160002080549050600660008473ffffffffffffffffffffffffffffffffffffffff1673ffffffffffffffffffffffffffffffffffffffff168152602001908152602001600020805490501115610bcf57610bce82610db8565b5b5b610db3565b7f45100a3080fe555af617fb8e506f10921efa97a87112c2f53a39b3cf15f72a14818385604051808473ffffffffffffffffffffffffffffffffffffffff1673ffffffffffffffffffffffffffffffffffffffff1681526020018373ffffffffffffffffffffffffffffffffffffffff1673ffffffffffffffffffffffffffffffffffffffff168152602001828152602001935050505060405180910390a16000600660008473ffffffffffffffffffffffffffffffffffffffff1673ffffffffffffffffffffffffffffffffffffffff1681526020019081526020016000206001600660008673ffffffffffffffffffffffffffffffffffffffff1673ffffffffffffffffffffffffffffffffffffffff1681526020019081526020016000208054905003815481101515610d0757fe5b906000526020600020900154148015610da35750600660008373ffffffffffffffffffffffffffffffffffffffff1673ffffffffffffffffffffffffffffffffffffffff16815260200190815260200160002080549050600660008373ffffffffffffffffffffffffffffffffffffffff1673ffffffffffffffffffffffffffffffffffffffff16815260200190815260200160002080549050115b15610db257610db182610db8565b5b5b505050565b6000806000806000806000600360008973ffffffffffffffffffffffffffffffffffffffff1673ffffffffffffffffffffffffffffffffffffffff1681526020019081526020016000205414151515610e1057600080fd5b6000600460008973ffffffffffffffffffffffffffffffffffffffff1673ffffffffffffffffffffffffffffffffffffffff1681526020019081526020016000205414151515610e5f57600080fd5b6000600360008673ffffffffffffffffffffffffffffffffffffffff1673ffffffffffffffffffffffffffffffffffffffff1681526020019081526020016000205414151515610eae57600080fd5b6000600460008673ffffffffffffffffffffffffffffffffffffffff1673ffffffffffffffffffffffffffffffffffffffff1681526020019081526020016000205414151515610efd57600080fd5b610f06876117f9565b9550610f11846117f9565b94506000808873ffffffffffffffffffffffffffffffffffffffff1673ffffffffffffffffffffffffffffffffffffffff16815260200190815260200160002060009054906101000a900473ffffffffffffffffffffffffffffffffffffffff169350600160008873ffffffffffffffffffffffffffffffffffffffff1673ffffffffffffffffffffffffffffffffffffffff168152602001908152602001600020549250600160008573ffffffffffffffffffffffffffffffffffffffff1673ffffffffffffffffffffffffffffffffffffffff168152602001908152602001600020549150818301905060008060008973ffffffffffffffffffffffffffffffffffffffff1673ffffffffffffffffffffffffffffffffffffffff16815260200190815260200160002060006101000a81548173ffffffffffffffffffffffffffffffffffffffff021916908373ffffffffffffffffffffffffffffffffffffffff16021790555060008060008673ffffffffffffffffffffffffffffffffffffffff1673ffffffffffffffffffffffffffffffffffffffff16815260200190815260200160002060006101000a81548173ffffffffffffffffffffffffffffffffffffffff021916908373ffffffffffffffffffffffffffffffffffffffff1602179055506000600160008973ffffffffffffffffffffffffffffffffffffffff1673ffffffffffffffffffffffffffffffffffffffff168152602001908152602001600020819055506000600160008673ffffffffffffffffffffffffffffffffffffffff1673ffffffffffffffffffffffffffffffffffffffff168152602001908152602001600020819055508515801561118f575084155b156112b0578673ffffffffffffffffffffffffffffffffffffffff166108fc849081150290604051600060405180830381858888f1935050505015156111d457600080fd5b8373ffffffffffffffffffffffffffffffffffffffff166108fc839081150290604051600060405180830381858888f19350505050151561121457600080fd5b7ff9a3a60cb724d07755d2834db8d01b03c0b89fd7f9ed1ac76c180681c383af9d8785604051808373ffffffffffffffffffffffffffffffffffffffff1673ffffffffffffffffffffffffffffffffffffffff1681526020018273ffffffffffffffffffffffffffffffffffffffff1673ffffffffffffffffffffffffffffffffffffffff1681526020019250505060405180910390a16116bc565b8415806113405750600660008573ffffffffffffffffffffffffffffffffffffffff1673ffffffffffffffffffffffffffffffffffffffff16815260200190815260200160002080549050600660008973ffffffffffffffffffffffffffffffffffffffff1673ffffffffffffffffffffffffffffffffffffffff16815260200190815260200160002080549050105b15611429578673ffffffffffffffffffffffffffffffffffffffff166108fc829081150290604051600060405180830381858888f19350505050151561138557600080fd5b7f5f042423274a97cfaadfb51bd916de5a3dca6f2a94f58bd4a717423abb69b016878583604051808473ffffffffffffffffffffffffffffffffffffffff1673ffffffffffffffffffffffffffffffffffffffff1681526020018373ffffffffffffffffffffffffffffffffffffffff1673ffffffffffffffffffffffffffffffffffffffff168152602001828152602001935050505060405180910390a16116bb565b8515806114b95750600660008573ffffffffffffffffffffffffffffffffffffffff1673ffffffffffffffffffffffffffffffffffffffff16815260200190815260200160002080549050600660008973ffffffffffffffffffffffffffffffffffffffff1673ffffffffffffffffffffffffffffffffffffffff16815260200190815260200160002080549050115b156115a2578373ffffffffffffffffffffffffffffffffffffffff166108fc829081150290604051600060405180830381858888f1935050505015156114fe57600080fd5b7f5f042423274a97cfaadfb51bd916de5a3dca6f2a94f58bd4a717423abb69b016848883604051808473ffffffffffffffffffffffffffffffffffffffff1673ffffffffffffffffffffffffffffffffffffffff1681526020018373ffffffffffffffffffffffffffffffffffffffff1673ffffffffffffffffffffffffffffffffffffffff168152602001828152602001935050505060405180910390a16116ba565b8673ffffffffffffffffffffffffffffffffffffffff166108fc849081150290604051600060405180830381858888f1935050505015156115e257600080fd5b8373ffffffffffffffffffffffffffffffffffffffff166108fc839081150290604051600060405180830381858888f19350505050151561162257600080fd5b7ff9a3a60cb724d07755d2834db8d01b03c0b89fd7f9ed1ac76c180681c383af9d8785604051808373ffffffffffffffffffffffffffffffffffffffff1673ffffffffffffffffffffffffffffffffffffffff1681526020018273ffffffffffffffffffffffffffffffffffffffff1673ffffffffffffffffffffffffffffffffffffffff1681526020019250505060405180910390a15b5b5b6000600560008973ffffffffffffffffffffffffffffffffffffffff1673ffffffffffffffffffffffffffffffffffffffff168152602001908152602001600020816117089190611b66565b506000600560008673ffffffffffffffffffffffffffffffffffffffff1673ffffffffffffffffffffffffffffffffffffffff168152602001908152602001600020816117559190611b66565b506000600660008973ffffffffffffffffffffffffffffffffffffffff1673ffffffffffffffffffffffffffffffffffffffff168152602001908152602001600020816117a29190611b92565b506000600660008673ffffffffffffffffffffffffffffffffffffffff1673ffffffffffffffffffffffffffffffffffffffff168152602001908152602001600020816117ef9190611b92565b5050505050505050565b6000806000600260008573ffffffffffffffffffffffffffffffffffffffff1673ffffffffffffffffffffffffffffffffffffffff1681526020019081526020016000205460001916600360008673ffffffffffffffffffffffffffffffffffffffff1673ffffffffffffffffffffffffffffffffffffffff16815260200190815260200160002054600460008773ffffffffffffffffffffffffffffffffffffffff1673ffffffffffffffffffffffffffffffffffffffff16815260200190815260200160002054604051808381526020018281526020019250505060405180910390206000191614156118f15760009250611ab9565b6000808573ffffffffffffffffffffffffffffffffffffffff1673ffffffffffffffffffffffffffffffffffffffff16815260200190815260200160002060009054906101000a900473ffffffffffffffffffffffffffffffffffffffff169150600090505b600560008373ffffffffffffffffffffffffffffffffffffffff1673ffffffffffffffffffffffffffffffffffffffff16815260200190815260200160002080549050811015611ab457611a41600560008473ffffffffffffffffffffffffffffffffffffffff1673ffffffffffffffffffffffffffffffffffffffff168152602001908152602001600020828154811015156119f057fe5b906000526020600020900154600460008773ffffffffffffffffffffffffffffffffffffffff1673ffffffffffffffffffffffffffffffffffffffff16815260200190815260200160002054611ac0565b600660008473ffffffffffffffffffffffffffffffffffffffff1673ffffffffffffffffffffffffffffffffffffffff16815260200190815260200160002082815481101515611a8d57fe5b906000526020600020900154141515611aa95760009250611ab9565b806001019050611957565b600192505b5050919050565b600081831015611af2577fffffffffffffffffffffffffffffffffffffffffffffffffffffffffffffffff9050611b08565b81831115611b035760019050611b08565b600090505b92915050565b815481835581811511611b3557818360005260206000209182019101611b349190611bbe565b5b505050565b815481835581811511611b6157818360005260206000209182019101611b609190611be3565b5b505050565b815481835581811511611b8d57818360005260206000209182019101611b8c9190611bbe565b5b505050565b815481835581811511611bb957818360005260206000209182019101611bb89190611be3565b5b505050565b611be091905b80821115611bdc576000816000905550600101611bc4565b5090565b90565b611c0591905b80821115611c01576000816000905550600101611be9565b5090565b905600a165627a7a7230582017e2d929426afd117a1f160647c182dc3f3c72078aa708fdd2ba50e30bd9dcfb0029",
  "source": "pragma solidity ^0.4.18;\n\ncontract GuessGame3 {\n    \n  /**\n   * Constructs funcion.\n   */    \n\tfunction GuessGame3() public {\n\t}\n\t\n  mapping(address => address) opp; // 对手\n  mapping(address => uint) bal; // 余额\n  mapping(address => bytes32) evi; // 证据\n  mapping(address => uint) evi_seed; // 证据-种子  \n  mapping(address => uint) evi_ans; // 证据-答案\n  mapping(address => uint[]) gus; // 询问列表\n  mapping(address => int[]) ans; // 获得的答案列表\n  address unmatched_player;\n\t\n\t/**\n\t * Join a new game. \n\t */\n  event NewRoom(address p, bytes32 e); // Player p create with a new room with an evidence e.\n  event JoinRoom(address p1, address p2, bytes32 e); // Player p1 join player p2's room with an evidence e.\n\tfunction join(bytes32 e) payable public{\n    require(opp[msg.sender] == 0); // 不在游戏房间中\n    require(msg.value > 10); // 最低赌注\n    bal[msg.sender] = msg.value;\n    evi[msg.sender] = e;\n    if (unmatched_player != 0) { // 已经有等待的玩家\n        opp[msg.sender] = unmatched_player;\n        opp[unmatched_player] = msg.sender;\n        JoinRoom(msg.sender, unmatched_player, e);\n        unmatched_player = 0;\n    } else {\n        unmatched_player = msg.sender;\n        NewRoom(msg.sender, e);\n\t    }\n\t}\n\t\n\t/**\n\t * Game logic. \n\t */\t\n  event Guess(address p1, address p2, uint s); // Player p1 make a guess s for p2's puzzle.\n  event WrongAnswer(address p1, address p2, int z); // Player p1 get a WrongAnswer with hint z in p2's puzzle.\n  event Accepted(address p1, address p2); // Player p1 get Accepted in p2's puzzle.    \n\tfunction guess(uint s) public payable{\n    address p1 = msg.sender;\n    address p2 = opp[p1];    \n    require(p2 != 0);\n    require(ans[p1].length == 0 || ans[p1][ans[p1].length - 1] != 0);\n    Guess(p1, p2, s);\n    gus[p1].push(s);\n\t}\n  function answer(int z) public payable{\n    address p1 = msg.sender;\n    address p2 = opp[p1];\n    require(p2 != 0);\n    require(ans[p2].length < gus[p2].length);\n    ans[p2].push(z);\n    if (z == 0){\n      Accepted(p2, p1);\n      if (ans[p1][ans[p1].length - 1] == 0){ // Both player finish his game.\n        end(p1);\n      } else if (ans[p1].length > ans[p2].length){ // p2 win.\n        end(p1);\n      }      \n    } else {\n      WrongAnswer(p2, p1, z);\n      if (ans[p1][ans[p1].length - 1] == 0 && ans[p2].length > ans[p1].length){ // p2 lose.\n        end(p1);\n      }\n    }\n  }\n\n  function reveal(uint s, uint a) public{\n    evi_seed[msg.sender] = s;\n    evi_ans[msg.sender] = a;    \n  }\n  function cmp(uint a, uint b) internal pure returns(int z){\n    if (a < b) return -1;\n    if (a > b) return 1;\n    return 0;\n  }\n  function judge(address p1) internal view returns(bool z){ \n    if (keccak256(evi_seed[p1], evi_ans[p1]) == evi[p1]) return false;\n    address p2 = opp[p1];\n    for (uint i=0; i<gus[p2].length; ++i) {\n      if (ans[p2][i] != cmp(gus[p2][i], evi_ans[p1])) return false;\n    }\n    return true;\n    // To do, is legal?\n  }\n  event Win(address p1, address p2, uint r); // Player p1 win r from p2.\n  event Draw(address p1, address p2); // There is a draw between p1 and p2. \n  function end(address p1) internal {\n    require(evi_seed[p1] != 0);\n    require(evi_ans[p1] != 0);    \n    require(evi_seed[p2] != 0);\n    require(evi_ans[p2] != 0);  \n    bool j1 = judge(p1);\n    bool j2 = judge(p2);\n    address p2 = opp[p1];\n    uint r1 = bal[p1];\n    uint r2 = bal[p2];    \n    uint r = r1 + r2;\n    opp[p1] = 0; opp[p2] = 0;    \n    bal[p1] = 0; bal[p2] = 0;\n\n    if (!j1 && !j2) {\n      p1.transfer(r1);\n      p2.transfer(r2);\n      Draw(p1, p2);\n    } else if (!j2 || ans[p1].length < ans[p2].length) {\n      p1.transfer(r);\n      Win(p1, p2, r);\n    } else if (!j1 || ans[p1].length > ans[p2].length) {\n      p2.transfer(r);\n      Win(p2, p1, r);\n    } else {\n      p1.transfer(r1);\n      p2.transfer(r2);\n      Draw(p1, p2);\n    }\n\n    gus[p1].length = 0; gus[p2].length = 0;\n    ans[p1].length = 0; ans[p2].length = 0;    \n  }\n}",
  "sourcePath": "/saveproj/koshima/1A2BGuessingNumber/contracts/GuessGame3.sol",
  "compiler": {
    "name": "solc",
    "version": "0.4.18+commit.9cf6e910.Emscripten.clang"
  },
  "schemaVersion": "1.0.1",
  "updatedAt": "2018-02-17T16:01:37.056Z"
}